:1000000012C0189518951895189518951895189563
:1000100018951895189518959CC0189518951895C9
:100020001895189518958FE58DBFC0E4E8E34E2E1E
:1000300084E08EBFD4E0F4E05F2EEEEFF3E0A0E6C4
:10004000B0E0A89584B7082E877F84BF88E1992700
:1000500081BD91BD88278D933197E9F783E389B9F5
:1000600080E080BD88E18AB96624789486E886B904
:1000700080E087B9379A07B1007F016007B95CD08B
:10008000A7ECB0E08D939C93A9ECB0E0EEE6F2E033
:100090004ED0A9ECB0E008D0E7ECF0E097D0A9ECA6
:1000A000B0E00BD010D0E7CF8F938D918823E9F784
:1000B00011978F910895A0E2B4E08D91882311F0FB
:1000C00005D0FBCF08958DE001D08AE09F939FB7C4
:1000D0009F93AF93BF930F937F939091C6009436F5
:1000E000E1F3F8949091C60093959093C6009927F8
:1000F0000091C500A0E6B0E0A00FB91F8C93039556
:10010000043609F400270093C500559A7F910F919A
:10011000BF91AF919F919FBF9F9108953197F1F744
:100120000895689462F80895E89462F808950DD0EF
:100130000D920020E1F70895369A3699FECF369A4F
:100140003699FECF84B195B10895C89531960020B7
:1001500008957F93AF93BF938F939F938FB78F93A0
:100160009091C600992399F09A959093C60099278B
:10017000A0E6B0E08091C400A80FB91F9C918395C0
:10018000843609F488278093C4009CB901C055982F
:100190008F918FBF9F918F91BF91AF917F91189554
:1001A000000F111F221F331F0895009510952095F1
:1001B00030950F5F1F4F2F4F3F4F089501911081D2
:1001C0000EC001911191219130810BC001911081DC
:1001D00017FF05C03FEF2FEF04C000811127222732
:1001E000332737FF03C0E1DF8DE28D93CF93DF9399
:1001F000CF92DF92EF92AA24BB24CC24DD24EE24FC
:1002000040E2CAE0DD2755E093E38881890F87FD4E
:100210009F7083FD907F891B89935A95A9F7C0DF52
:10022000AA1CBB1CCC1CDD1CEE1C4A9551F7E894A3
:10023000EFE0FF2782910ED0EB30E0F71EF06894DC
:100240008A2D0CD088278D93EF90DF90CF90DF918F
:10025000CF910895982F829501D0892F8F70805D5E
:1002600026F0803309F4089568948D93089573659A
:0202700070001C
:00000001FF
