:100000000C942A001895000018950000189500001F
:10001000189500001895000018950000189500002C
:10002000189500001895000018950000189500001C
:1000300018950000189500000C9494001895000085
:1000400018950000189500001895000018950000FC
:10005000189500008FE58DBFC0E4E8E34E2E88E0E0
:100060008EBFD8E0F8E05F2EEEEFF7E0A0E6B0E05C
:10007000A89584B7082E877F84BF88E1992781BD22
:1000800091BD88278D933197E9F783E389B980E0A3
:1000900080BD88E18AB966247894E6E7F1E00E94A1
:1000A00055000E945C000C944D000E949000802D31
:1000B00011F005D0FACF08958DE001D08AE09F932A
:1000C0009FB79F93AF93BF930F937F939091C60079
:1000D0009436E1F3F8949091C60093959093C600FE
:1000E00099270091C500A0E6B0E0A00FB91F8C933E
:1000F0000395043609F400270093C500559A7F91B3
:100100000F91BF91AF919F919FBF9F91089531979C
:10011000F1F70895689462F80895E89462F80895F4
:10012000C8953196002008957F93AF93BF938F9326
:100130009F938FB78F939091C600992399F09A95CA
:100140009093C6009927A0E6B0E08091C400A80F64
:10015000B91F9C918395843609F488278093C40045
:100160009CB901C055988F918FBF9F918F91BF917E
:0E017000AF917F911895736570313032340075
:00000001FF
